S018000043535345323031305F70726F6A6563742E73726563C5
S11300000C9419020C9436020C9436020C943602A9
S11300100C9436020C9479020C9436020C94360239
S11300200C9436020C94420D0C9436020C94360255
S11300300C9436020C94060D0C9436020C94360281
S11300400C94B90C0C9436020C9436020C943602BF
S11300500C94B2090C9470090C9436020C94360278
S11300600C9436020C9436020C9436020C9436022C
S11300700C9436020C9436020C9436026220696E9B
S113008020743A2025640070726520726F772025F1
S1130090642C2070726520636F6C20256400726F7D
S11300A0772025642C20636F6C20256400726F77A1
S11300B02025642C20636F6C20256400726F7720E8
S11300C025642C20636F6C20256400726F772025D3
S11300D0642C20636F6C20256400726F7720256484
S11300E02C20636F6C20256400726F772025642CAC
S11300F020636F6C20256400426F78207761732041
S11301006D6F76656420746F207461726765742EF8
S113011000596F752063616E2774207075736820B1
S113012074776F20626F786573206174206F6E63DB
S1130130652100596F752063616E27742070757393
S113014068206120626F78207468726F7567682018
S1130150612077616C6C21005468652077616C6C58
S1130160206973206F62737472756374696E67209B
S1130170796F752E00506C617965722063616E270A
S113018074206D6F7665207468726F756768207768
S1130190616C6C732E0054686520706C61796572B3
S11301A02068697420612077616C6C21005072654D
S11301B07373202772272F27522720746F207265AC
S11301C073746172742C206F72202765272F274562
S11301D02720746F206578697400537465707320E8
S11301E074616B656E3A2025640954696D653A2023
S11301F0256400596F75722073636F72653A202508
S1130200640047414D45204F5645520054696D6581
S113021020656C6170736564203A20256400435343
S11302205345323031302F373230312050726F6ABB
S11302306563742062792053697468696B61204D29
S1130240616E6E616B6B617261202D2034383031C8
S1130250363732320060381F3F3F637EFE60BCB1E8
S1130260B16166C3C060B63FBF617CC3FE60B3B119
S1130270B16166C306E0B1313F3F637EFEF0F0003A
S1130280F0F0F0F000F00000F00000F000F00000EA
S1130290F00000F000F0F0F0F000F0F000000000DA
S11302A00000000000F0F0F0F0F0000000F00000AA
S11302B000F0000000F0000000F0000000F0F0F09A
S11302C0F0F00000000000000000000000F0F0F07A
S11302D0F0F0F0F000000000F0000000000000F07A
S11302E000F0000000F0F0000000F000000000004A
S11302F00000000000F0F0F0F0F0000000F000005A
S113030000F0000000F0000000F0000000F0F0F049
S1130310F0F00000000000000000000000F0F0F029
S1130320F0F0F0F000F00000F000000000F0000039
S1130330F000000000F0F0F0F00000000000000009
S11303400000000000F0F0F000F0000000F000F009
S113035000F0000000F000F000F0000000F0F0F009
S1130360F0F00000000000000000000000F0F0F0D9
S1130370F0F000000000000000F0000000000000A9
S113038000F0000000F0F0F0F0F0000000000000C9
S1130390000000000000000000000000003C3C3CA5
S11303A03C3C3C00003C3C00003C3C00003C003C2D
S11303B03C003C00003C003C3C003C00003C3C0059
S11303C0003C3C00003C3C3C3C3C3C000000000049
S11303D010001000001000001000100000001000B9
S11303E00010001010000010100010101000100079
S11303F000000010101000000000000000000000C9
S1130400000000000000000000000000001B5B3F33
S113041032356C001B5B25646D001B5B4B001B5B62
S1130420324A001B5B306D001B5B25643B2564482E
S1130430000011241FBECFEFD8E0DEBFCDBF11E016
S1130440A0E0B1E0E0E9F3E202C005900D92AA3A1F
S1130450B107D9F723E0AAEAB1E001C01D92A6379B
S1130460B207E1F70E94E0080C94C6110C94000056
S11304701092AA011092AF01E8E6F0E08081826058
S113048080838BB382608BBBECE6F0E080818F606D
S1130490808308958091AA018823F9F08091AB01AB
S11304A05FB75078F89491E00BC0292F30E0F90140
S11304B0E555FE4F4081F901E655FE4F40839F5FAD
S11304C02091AA01921788F39091AA0191509093D8
S11304D0AA01552319F0789408958FEF08958FB7E2
S11304E0F8941092AA011092AF0188230CF4789426
S11304F008951F920F920FB60F9211242F933F93DA
S11305004F938F939F93EF93FF9343B14F7080E08A
S113051024C09091AA019430F8F4242F30E0082EDE
S113052002C0359527950A94E2F720FF15C0209163
S1130530AF0130E0082E02C0359527950A94E2F702
S113054020FD0AC0E091AA0191E09E0F9093AA01B8
S1130550F0E0E555FE4F80838F5F8430D0F2409306
S1130560AF01FF91EF919F918F914F913F912F9107
S11305700F900FBE0F901F90189590E1899FF00186
S11305801124EF53FE4FE60FF11D908197709230C6
S113059099F028F4992341F0913051F00895943062
S11305A079F0963089F0089540E00E94DE060895BF
S11305B04FEF0E94DE0608954CE30E94DE06089584
S11305C04FE00E94DE06089540EF0E94DE06089583
S11305D0CF93DF9381E08093B001E1EBF1E025E07C
S11305E0208392E091838FEF828383838483858346
S11305F08683878380878187828783871092BE0161
S11306002093C0019093BF011092BD01A0E027C0C8
S11306108A2F90E027E030E0281B390B462F50E06A
S1130620FC01E295F295F07FFE27E07FFE27EE5E67
S1130630FE4FE40FF51F7081C90182959295907F5A
S11306409827807F98278F539E4FFC01E40FF51F56
S113065070836F5F01C060E06031D0F2AF5FA8309B
S1130660D0F3D0E00AC06C2F8D2F0E94BD02CF5F63
S113067001C0C0E0C031B8F3DF5FD830D0F3DF9100
S1130680CF9108959091B001E92FF0E0EE0FFF1F94
S1130690EF54FE4F80836183953019F41092B001BA
S11306A008959F5F9093B0010895E091B001E53003
S11306B019F48091B1010895E11103C08091BB0147
S11306C00895F0E03197EE0FFF1FEF54FE4F808145
S11306D00895E091B001E53019F48091B2010895D4
S11306E0E11103C08091BC010895F0E03197EE0F51
S11306F0FF1FEF54FE4F818108959091BD0181E069
S113070089278093BD01882341F040E16091BF01B6
S11307108091C0010E94DE0608956091BF0180911E
S1130720C0010E94BD02089570E0615F7F4F23E124
S113073030E0A901481B5109CA010E944E0C88E20D
S11307400E947D0C609172037091730380E290E0CB
S11307500E94C50E80E00E947D0C089570E0615FE8
S11307607F4F23E130E0A901481B5109CA010E94CF
S11307704E0C8FE20E947D0C6091720370917303A2
S113078080E290E00E94C50E80E00E947D0C0895F6
S113079070E0615F7F4F23E130E0A901481B5109FC
S11307A0CA010E944E0C8EE20E947D0C609172037D
S11307B07091730380E290E00E94C50E80E00E9475
S11307C07D0C089570E0615F7F4F23E130E0A90163
S11307D0481B5109CA010E944E0C89E20E947D0CFB
S11307E0609172037091730380E290E00E94C50EE1
S11307F080E00E947D0C089570E0615F7F4F23E1EB
S113080030E0A901481B5109CA010E944E0C8AE23A
S11308100E947D0C609172037091730380E290E0FA
S11308200E94C50E80E00E947D0C0895DF92EF9235
S1130830FF920F931F93CF93DF93F82ED62E0E942F
S11308405503182F0E946903082FC091C001E0903E
S1130850BF01FF2069F0DC2FDF0DD93C58F4D830FC
S113086060F4DD2369F0D73069F0CF2DCD0F0BC0D4
S1130870DC2F09C0D7E0C6E006C0D0E0C1E003C069
S1130880C7E001C0C0E0DD2079F0FE2CFD0C88EC4F
S11308908F1560F09FE09F1590F0FF20A1F0F916EE
S11308A0B9F0ED2CEF0C15C0FE2C13C00F2EFFE099
S11308B0FF2EF02D0F2EFEE0EF2EF02D0AC0F12CAE
S11308C0EE24E39406C00F2EFFE0EF2EF02D01C0BE
S11308D0E12C2D2F30E04F2D50E0F901E295F295F7
S11308E0F07FFE27E07FFE27EF53FE4FE40FF51F56
S11308F09081913081F565E070E085E090E00E94A0
S11309004E0C0E94740C0E94660E63E070E00E941C
S1130910780D009749F486E991E09F938F930E94A4
S1130920010F0F900F9013C0019749F485E791E0F0
S11309309F938F930E94010F0F900F9008C088E53A
S113094091E09F938F930E94010F0F900F900E944C
S11309507D0380E0AAC1923019F0963009F0B1C04D
S1130960EC2FF0E06E2D70E0DF01A295B295B07F20
S1130970BA27A07FBA27AF53BE4FA60FB71F8C91DB
S1130980813081F465E070E085E090E00E944E0CD7
S113099083E391E09F938F930E94010F0F900F9038
S11309A080E083C1823011F0863081F465E070E02C
S11309B085E090E00E944E0C81E191E09F938F933B
S11309C00E94010F0F900F9080E06FC1843081F579
S11309D022953295307F3227207F32272F533E4F86
S11309E0D901A40FB51F1C92DF01A295B295B07F67
S11309F0BA27A07FBA27AF53BE4FA60FB71F86E012
S1130A008C93CF010E94FC0365E070E085E090E0E8
S1130A100E944E0C88EF90E09F938F930E94010FE9
S1130A208091BE018F5F8093BE010F900F9041C0F3
S1130A30963019F522953295307F3227207F322760
S1130A402F533E4FD901A40FB51F84E08C93E29538
S1130A50F295F07FFE27E07FFE27EF53FE4FE60F6F
S1130A60F71F82E080836E2D8C2F0E94C803809133
S1130A70BE0181508093BE011CC022953295307F07
S1130A803227207F32272F533E4FD901A40FB51FA1
S1130A901C92E295F295F07FFE27E07FFE27EF534C
S1130AA0FE4FE60FF71F82E080836E2D8C2F0E948D
S1130AB0C8036F2D8D2F0E94BD026E2D8C2F0E94B6
S1130AC0BD0280E1C89FF0011124EF53FE4FEE0DEB
S1130AD0F11D8081863041F065E070E085E090E0B2
S1130AE00E944E0C0E94740C6091BF018091C00161
S1130AF00E94BD026091BF018091C0010E949403D5
S1130B008091C00190E06091BF0170E0FC01E2952A
S1130B10F295F07FFE27E07FFE27EF53FE4FE60FAE
S1130B20F71F2081243011F40E94E203D093C00106
S1130B30F092BF016F2D8D2F0E94AE030E947D03A2
S1130B406091BF018091C0010E9442036CE370E098
S1130B5080E090E00E944E0C0E94740CC1EBD1E046
S1130B60998188811F929F931F928F9389EE90E0C1
S1130B709F938F930E94010F6CE370E081E090E0FB
S1130B800E944E0C0E94740C9B818A811F929F9339
S1130B901F928F938AED90E09F938F930E94010F91
S1130BA06CE370E082E090E00E944E0C0E94740CB2
S1130BB09D818C811F929F931F928F938BEC90E069
S1130BC09F938F930E94010F6CE370E083E090E0A9
S1130BD00E944E0C0E94740C9F818E811F929F93E1
S1130BE01F928F938CEB90E09F938F930E94010F41
S1130BF06CE370E084E090E00E944E0C0E94740C60
S1130C00998588851F929F931F928F938DEA90E018
S1130C109F938F930E94010F6CE370E085E090E056
S1130C200E944E0C0E94740C9B858A851F929F9390
S1130C301F928F938EE990E09F938F930E94010FF0
S1130C408DB79EB784960FB6F8949EBF0FBE8DBF26
S1130C506CE370E086E090E00E944E0C0E94740CFD
S1130C601F920F931F921F9387E890E09F938F9397
S1130C700E94010F6CE370E087E090E00E944E0C4C
S1130C800E94740C8091BE011F928F938CE790E0B8
S1130C909F938F930E94010F8DB79EB70A960FB64C
S1130CA0F8949EBF0FBE8DBF81E0DF91CF911F915D
S1130CB00F91FF90EF90DF900895EF92FF920F93C2
S1130CC01F93CF93DF930E94620C00E03FC0C12FBB
S1130CD0D0E0E02EF12CBE01615F7F4FC7010C967E
S1130CE00E944E0C87E090E08E199F0982959295A0
S1130CF0907F9827807F98278F539E4FC80FD91FC6
S1130D008881811104C088E20E947D0C11C0813069
S1130D1021F48BE20E947D0C0BC0843021F489E223
S1130D200E947D0C05C0823019F48EE20E947D0C75
S1130D30609172037091730380E290E00E94C50E8B
S1130D401F5F01C010E0103110F20F5F0830D0F3C4
S1130D506091BF0170E0615F7F4F9091C00123E11A
S1130D6030E0A901491B5109CA010E944E0C8FE2CF
S1130D700E947D0C609172037091730380E290E095
S1130D800E94C50E80E00E947D0CDF91CF911F91DF
S1130D900F91FF90EF9008958091BE01853041F44A
S1130DA06091BF018091C0010E94BD0281E008955D
S1130DB080E0089580E80E94580A08951F93CF9315
S1130DC0DF936031B0F48830A0F4142FD62FC82FED
S1130DD081E00E94840A8C2F877020E1829FC001E9
S1130DE011246D2F6F70862B0E94840A812F0E941C
S1130DF0840ADF91CF911F9108950F931F93CF938E
S1130E008031A0F48B01C82F83E00E94840A8C2FC8
S1130E108F700E94840AC0E007C0F801EC0FF11D36
S1130E2080810E94840ACF5FC830B8F3CF911F91AC
S1130E300F91089584E00E94840A82E00E94840A4B
S1130E4008958FE00E94840A08950E94DA060E94A1
S1130E50380240E060E07BE480E090E00E94050A14
S1130E600E94930C0E94DE0C0E941D0D789408953C
S1130E700E948A0C0E94620C0E946B0C65E083E065
S1130E800E94280C65E070E08BE090E00E944E0C1C
S1130E908EE192E09F938F930E94010F0E94730B47
S1130EA00E946F020F900F900E944A028F3F31F010
S1130EB00E94A90CCB010E946B0E08950E944C0A5B
S1130EC0882391F080917003909171030E94870EA2
S1130ED08337910519F08335910531F40E94A90CEB
S1130EE0CB010E946B0E08950E947D0BDDCF0E9402
S1130EF08A0C0E946B0C0E94E80210925702109216
S1130F005B0210925A0210925902109258020E94E7
S1130F106F020E94530A08958F929F92AF92BF92DC
S1130F20CF92DF92EF92FF920E945D060E94F50C31
S1130F300E94A90C4B015C01ABC00E94FA0C2091E9
S1130F405A0230915B0282179307E1F02F5F3F4F03
S1130F5030935B0220935A0265E070E084E090E0F5
S1130F600E944E0C80915B028F9380915A028F9362
S1130F708CE092E09F938F930E94010F0F900F904B
S1130F800F900F900E944A02811106C061E00E94F6
S1130F9016048093570258C0813039F460E08FEF13
S1130FA00E941604809357024FC0823039F460E0E7
S1130FB081E00E9416048093570246C0833039F4BE
S1130FC06FEF80E00E941604809357023DC00E9498
S1130FD04C0A8823C9F180917003909171030E9497
S1130FE0870E8436910519F08434910539F461E053
S1130FF080E00E9416048093570226C0833791052F
S113100019F08335910539F460E08FEF0E941604DE
S11310108093570219C08737910519F087359105D8
S113102039F460E081E00E941604809357020CC0FA
S11310308136910519F08134910531F46FEF80E028
S11310400E9416048093570280915702882369F006
S11310500E942D0D8091580290915902019690930F
S1131060590280935802109257020E94A90C6B01F6
S11310707C01D501C40188539F4FAF4FBF4FC816A1
S1131080D906EA06FB0620F00E947D0346015701BB
S11310900E94CC06882309F450CFFF90EF90DF9094
S11310A0CF90BF90AF909F908F90089580915A02F7
S11310B090915B02803B24E0920728F440EB54E0DB
S11310C0481B590B02C040E050E0809158029091B7
S11310D05902883C910538F428EC30E0B901681BCA
S11310E0790BCB0102C080E090E0840F951F089536
S11310F00E946B0C6AE070E08EE090E00E944E0C5F
S113110082E092E09F938F930E94010F6AE070E067
S11311108FE090E00E944E0C0E9456089F938F939C
S113112083EF91E09F938F930E94010F6AE070E038
S113113080E190E00E944E0C80915B028F9380913D
S11311405A028F93809159028F93809158028F9302
S11311508AED91E09F938F930E94010F6AE070E003
S113116081E190E00E944E0C8DEA91E09F938F9371
S11311700E94010F8DB79EB70E960FB6F8949EBFCE
S11311800FBE8DBF0E944C0A882339F080917003F2
S1131190909171030E94870E02C08FEF9FEF0E940F
S11311A0760E8235910531F40E9477070E948C07F0
S11311B00E9478088534910529F70E94E008E2CF5F
S11311C00E9425070E9438070E9477070E948C0717
S11311D00E947808CF93C82F8A3019F48DE00E94BA
S11311E0EA089FB7907802C0992329F180915D02A3
S11311F08F3FD1F3F894E0915C0281E08E0F8093ED
S11312005C02F0E0E25AFD4FC08380915D028F5F83
S113121080935D0280915C028F3F11F410925C0216
S1131220E1ECF0E0808180628083992339F0789446
S113123080E090E005C081E090E002C080E090E0B2
S1131240CF91089580916F038823E1F32FB720781D
S1131250F89480915D0330916F0390E0831B9109B2
S11312605AF4E0915D0380916F03F0E0E81BF1090B
S1131270E259FC4F80810AC0E0915D0380916F03C5
S1131280F0E0E81BF109E25AFC4F808190916F0372
S1131290915090936F03222309F078949091420225
S11312A09B31B1F4909141029B3591F4823449F021
S11312B018F4813461F00CC0833429F0843429F0AB
S11312C007C083E705C084E603C081E601C087E761
S11312D090914102909342028093410290E00895DC
S11312E01F920F920FB60F9211242F938F939F93F7
S11312F0EF93FF9380915D02882329F180915C0232
S113130020915D0290E0821B91095AF4E0915C0205
S113131080915D02F0E0E81BF109E35AFC4F9081F3
S11313200AC0E0915C0280915D02F0E0E81BF109E3
S1131330E25AFD4F908180915D02815080935D025D
S11313409093C60005C0E1ECF0E080818F7D80833E
S1131350FF91EF919F918F912F910F900FBE0F905E
S11313601F9018951F920F920FB60F9211242F936E
S11313703F934F935F936F937F938F939F93AF9319
S1131380BF93CF93EF93FF93C091C6008091430224
S1131390882349F080915D028F3F29F060E070E07E
S11313A08C2F0E94EA0880916F03803120F081E045
S11313B080936E0318C0CD3009F4CAE0E0915D0358
S11313C081E08E0F80935D03F0E0E25AFC4FC0830E
S11313D080916F038F5F80936F0380915D038031F1
S11313E011F410925D03FF91EF91CF91BF91AF91F2
S11313F09F918F917F916F915F914F913F912F9129
S11314000F900FBE0F901F90189510925C021092CF
S11314105D0210925D0310926F0310926E0340936D
S11314204302DC01CB01880F991FAA1FBB1F880F41
S1131430991FAA1FBB1F9C01AD01220F331F441F1C
S1131440551F60E072E18AE790E00E948C0DBA01BA
S1131450A9014F5F5F4F6F4F7F4FDB01CA011AF441
S11314600196A11DB11DB595A795979587950197EF
S11314709093C5008093C400E1ECF0E088E18083A0
S1131480808180688083E0E7F3E084E091E09383E7
S1131490828391838083089590916F0381E09111F9
S11314A001C080E0089510925D0310926F030895C7
S11314B094B1906B94B995B1906195B990E59CBD48
S11314C0883021F0803211F0823019F491E09DBD12
S11314D001C01DBC803269F028F4883071F080317D
S11314E061F00EC0803429F0803851F48CB58160ED
S11314F08CBD8CB582608CBD03C08CB581608CBD05
S113150085B18F7E85B908958EBD0DB407FEFDCFDC
S11315108EB508951F93CF93DF93CDB7DEB7289789
S11315200FB6F894DEBF0FBECDBF10E017C0612F19
S113153070E0660F771F660F771F660F771F63587B
S11315407D4F48E050E0CE0101960E947E0EBE0120
S11315506F5F7F4F812F0E94FD061F5F103138F3AC
S113156028960FB6F894DEBF0FBECDBFDF91CF91A2
S11315701F910895CF93DF93CDB7DEB728970FB6A9
S1131580F894DEBF0FBECDBF0E941A0760914402DB
S113159070E0660F771F660F771F660F771F63581B
S11315A07D4F48E050E0CE0101960E947E0EBE01C0
S11315B06F5F7F4F8FE00E94FD064091440250E030
S11315C04F5F5F4F9A0136952795ABE7B4E10E94D0
S11315D0AB0D9695879562E3689F9001699F300DE6
S11315E01124CA01821B930B80934402803129F495
S11315F080914D02816080934D0228960FB6F89435
S1131600DEBF0FBECDBFDF91CF910895EF92FF9261
S11316100F931F93CF93DF93CDB7DEB728970FB601
S1131620F894DEBF0FBECDBFF62EE42E682F70E017
S1131630660F771F660F771F660F771F6B5A7D4FF4
S113164048E050E0CE0101960E947E0E0FE310E0C8
S11316500F19110929813A814B815C816D817E8149
S11316608F8198850E94BC0D217030E040E050E0ED
S113167060E070E080E090E0A0E00E94D80DC1F04E
S1131680E1101BC010E00FC0812F90E0FC01E75671
S1131690FE4F20812F1530F0FC01EE56FE4F808165
S11316A00E947D0C1F5F173078F3EE24E39405C08D
S11316B0EE2019F00E94620CE12C6091720370918B
S11316C0730380E290E00E94C50E8E2D28960FB61B
S11316D0F894DEBF0FBECDBFDF91CF911F910F9164
S11316E0FF90EF9008950E9421070E948A0A80913A
S11316F04D02816080934D020895CF92DF92EF9264
S1131700FF920E94A90C6B017C0180914D0280FF25
S113171016C0C0924902D0924A02E0924B02F09263
S11317204C02C0924502D0924602E0924702F092E7
S1131730480290E190934402887F80934D02809107
S11317404402803109F064C08091490290914A02B8
S1131750A0914B02B0914C02AC01BD014053584FD3
S11317606F4F7F4F4C155D056E057F0558F40E9441
S1131770BA0AC0924502D0924602E0924702F09221
S1131780480261C020914D02322F327021FD19C0F0
S113179088519C4FAF4FBF4F8C159D05AE05BF05BB
S11317A080F40E948A0A80914D02826080934D02E7
S11317B0C0924502D0924602E0924702F09248025B
S11317C042C0311140C08091450290914602A091DF
S11317D04702B09148028C599F4FAF4FBF4F8C15B1
S11317E09D05AE05BF0578F584E0282720934D02BA
S11317F022FF03C00E94210702C00E948A0AC092ED
S11318004502D0924602E0924702F09248021BC081
S11318108091450290914602A0914702B0914802FE
S113182088539F4FAF4FBF4F8C159D05AE05BF0525
S113183050F40E94BA0AC0924502D0924602E09245
S11318404702F0924802FF90EF90DF90CF90089506
S1131850FF920F931F93CF93DF93F82E062F10E080
S1131860D0E014C0602F70E08F2D90E0810F911DA7
S11318700E944E0CC0E007C04D2F6C2F812F0E9498
S1131880060BD82FCF5FC034B8F31F5F153050F369
S1131890DF91CF911F910F91FF9008956F5F7F4F5C
S11318A07F936F9301969F938F9388E294E09F9325
S11318B08F930E94010F0F900F900F900F900F9035
S11318C00F90089583E294E09F938F930E94010FF9
S11318D00F900F9008958EE194E09F938F930E9450
S11318E0010F0F900F9008958AE194E09F938F93D6
S11318F00E94010F0F900F9008951F928F9384E11F
S113190094E09F938F930E94010F0F900F900F907C
S11319100F9008958DE094E09F938F930E94010FA0
S11319200F900F90089510924E0210924F02109251
S113193050021092510216BC8CE787BD92E094BD10
S113194083E085BDEEE6F0E080818260808395BB14
S113195008958FB7282F2078F89460914E027091E3
S11319604F028091500290915102222309F0789401
S113197008951F920F920FB60F9211248F939F9385
S1131980AF93BF9380914E0290914F02A091500269
S1131990B09151020196A11DB11D80934E02909306
S11319A04F02A0935002B0935102BF91AF919F9107
S11319B08F910F900FBE0F901F9018951092850075
S11319C01092840081E19AE79093890080938800C3
S11319D0109280008CE080938100EFE6F0E080813B
S11319E08260808382E086BB089510925302109235
S11319F0520208959FB79078F89420915202309142
S1131A005302992309F07894C90108951F920F9203
S1131A100FB60F9211248F939F938091520290914D
S1131A205302019690935302809352029F918F9197
S1131A300F900FBE0F901F9018951092B2008FEF69
S1131A4087B98FE48093B30082E08093B0008093E1
S1131A50B1008093700087BB08958091560289304D
S1131A6068F01092560280915502893018F0109255
S1131A70550208958F5F8093550208958F5F809378
S1131A80560208951F920F920FB60F9211242F93AE
S1131A908F939F93EF93FF939091540281E0892752
S1131AA08093540280915402811108C0E09156023F
S1131AB0F0E0E056FE4F808188B907C0E0915502FE
S1131AC0F0E0E056FE4F808188B98091540220E80E
S1131AD0829FC001112498B1892B88B9FF91EF919D
S1131AE09F918F912F910F900FBE0F901F9018957B
S1131AF097FB072E16F4009407D077FD09D00E94B7
S1131B00E40D07FC05D03EF4909581959F4F089510
S1131B10709561957F4F0895052E97FB1EF40094F0
S1131B200E94A30D57FD07D00E94F80D07FC03D0B7
S1131B304EF40C94A30D50954095309521953F4F4C
S1131B404F4F5F4F089590958095709561957F4FA5
S1131B508F4F9F4F0895A29FB001B39FC001A39FD1
S1131B60700D811D1124911DB29F700D811D1124D2
S1131B70911D089597FB10F8169400080F930830F0
S1131B8098F00850232F342F452F562F672F782F86
S1131B90892F902DF4CF0594979587957795679520
S1131BA057954795379527950A95AAF70F91089564
S1131BB00024A7FD00942A17300540055005600550
S1131BC07005800590050895AA1BBB1B51E107C051
S1131BD0AA1FBB1FA617B70710F0A61BB70B881FB9
S1131BE0991F5A95A9F780959095BC01CD01089548
S1131BF0A1E21A2EAA1BBB1BFD010DC0AA1FBB1F0D
S1131C00EE1FFF1FA217B307E407F50720F0A21B7E
S1131C10B30BE40BF50B661F771F881F991F1A94EB
S1131C2069F760957095809590959B01AC01BD0115
S1131C30CF0108958F929F92AF92BF92CF92DF927D
S1131C40EF92FF92CF93DF93EC01688179818A81CF
S1131C509B81611571058105910521F464E279ED9B
S1131C608BE597E02DE133EF41E050E00E948C0DCD
S1131C7049015A019B01AC01A7EAB1E40E947C111D
S1131C806B017C01ACEEB4EFA50194010E948A11B2
S1131C90DC01CB018C0D9D1DAE1DBF1DB7FF03C024
S1131CA00197A109B04888839983AA83BB839F774E
S1131CB0DF91CF91FF90EF90DF90CF90BF90AF90E6
S1131CC09F908F9008950E941A0E089580E091E0ED
S1131CD00E941A0E0895A0E0B0E080930001909352
S1131CE00101A0930201B093030108959111089595
S1131CF081568A5108F4805285580895FB01DC010D
S1131D0002C005900D9241505040D8F70895CF93EA
S1131D10DF93EC012B8120FF33C026FF0AC02F7B09
S1131D202B838E819F8101969F838E838A8190E08D
S1131D3029C022FF0FC0E881F9818081082E000CA0
S1131D40990B009719F420622B831AC03196F983FA
S1131D50E8830EC0EA85FB85099597FF09C02B81AE
S1131D60019611F080E201C080E1822B8B8308C0D0
S1131D702E813F812F5F3F4F3F832E83992702C0DF
S1131D808FEF9FEFDF91CF9108950F931F93CF9320
S1131D90DF93FB01238121FD03C08FEF9FEF2CC054
S1131DA022FF16C04681578124813581421753078B
S1131DB044F4A081B1819D012F5F3F4F3183208383
S1131DC08C93268137812F5F3F4F3783268314C03E
S1131DD08B01EC01FB010084F185E02D0995892B31
S1131DE0E1F6D80116968D919C9117970196179656
S1131DF09C938E931697CE01DF91CF911F910F91F3
S1131E000895A0E0B0E0E7E0FFE00C949D11AE017E
S1131E10495F5F4FDA016D917D91AD0100E713E0F9
S1131E20F80182819381DC0113962C911397286029
S1131E3013962C930E94270FD8011296ED91FC91D2
S1131E4013972381277F2383E4E00C94B911ABE03B
S1131E50B0E0EDE2FFE00C948F116C017B018A018C
S1131E60FC0117821682838181FFCCC1CE010196C9
S1131E703C01F6019381F70193FD859193FF8191D4
S1131E807F01882309F4BAC1853239F493FD859121
S1131E9093FF81917F01853229F4B60190E00E947D
S1131EA0C50EE7CF912C212C312CFFE1F315D8F08E
S1131EB08B3279F038F4803279F08332A1F4232D17
S1131EC020611DC08D3261F0803369F4232D2160BF
S1131ED016C0832D8260382EE32DE4603E2E2AC086
S1131EE0F32DF8601DC037FC2DC020ED280F2A30DB
S1131EF040F08E32B9F436FC81C1232D2064322E99
S1131F0019C036FE06C08AE0989E200D1124922E38
S1131F1011C0EAE02E9E200D1124222EF32DF06232
S1131F203F2E08C08C3621F4832D8068382E02C0E1
S1131F30883641F4F70193FD859193FF81917F01E8
S1131F408111B3CF982F9F7D9554933028F40C5F63
S1131F501F4F9FE399830DC0833631F0833771F0AF
S1131F60833509F059C021C0F801808189830E5F4F
S1131F701F4F88248394912C530113C02801F2E04D
S1131F804F0E511CF801A080B18036FE03C0692DAC
S1131F9070E002C06FEF7FEFC5010E9413114C0186
S1131FA08201F32DFF773F2E16C0280122E0420E56
S1131FB0511CF801A080B18036FE03C0692D70E089
S1131FC002C06FEF7FEFC5010E9408114C01F32D91
S1131FD0F0683F2E820133FC1BC0822D90E08816EE
S1131FE09906B0F4B60180E290E00E94C50E2A94EE
S1131FF0F4CFF50137FC859137FE81915F01B6017D
S113200090E00E94C50E21102A9421E0821A9108C2
S11320108114910471F7E8C0843611F0893641F5D2
S1132020F80137FE07C060817181828193810C5F62
S11320301F4F08C060817181072E000C880B990B1B
S11320400E5F1F4FF32DFF763F2E97FF09C090952B
S11320508095709561957F4F8F4F9F4FF0683F2E0D
S11320602AE030E0A3010E941E11882E861845C084
S1132070853731F4232D2F7EB22E2AE030E025C09F
S1132080932D997FB92E8F36C1F018F4883579F0E5
S1132090B5C0803719F0883721F0B0C0E92FE0616E
S11320A0BE2EB4FE0DC0FB2DF460BF2E09C034FE5D
S11320B00AC0292F2660B22E06C028E030E005C0F1
S11320C020E130E002C020E132E0F801B7FE07C0B1
S11320D060817181828193810C5F1F4F06C0608192
S11320E0718180E090E00E5F1F4FA3010E941E11DA
S11320F0882E8618FB2DFF773F2E36FE0DC0232D2C
S11321002E7FA22E891458F434FE0BC032FC09C071
S1132110832D8E7EA82E05C0B82CA32C03C0B82C0A
S113212001C0B92CA4FE0FC0FE01E80DF11D808191
S1132130803321F49A2D997EA92E09C0A2FE06C0EF
S1132140B394B39404C08A2D867809F0B394A3FCA5
S113215011C0A0FE06C0B21488F4280C922C9B185F
S11321600EC0B21460F4B60180E290E00E94C50E85
S1132170B394F7CFB21418F42B1802C0982C212C66
S1132180A4FE10C0B60180E390E00E94C50EA2FE3A
S113219017C0A1FC03C088E790E002C088E590E086
S11321A0B6010CC08A2D867859F0A1FE02C08BE2DC
S11321B001C080E2A7FC8DE2B60190E00E94C50E4A
S11321C0891438F4B60180E390E00E94C50E9A9415
S11321D0F7CF8A94F301E80DF11D8081B60190E0F8
S11321E00E94C50E8110F5CF222009F442CEB6011B
S11321F080E290E00E94C50E2A94F6CFF601868113
S1132200978102C08FEF9FEF2B96E2E10C94AB1104
S1132210FC010590615070400110D8F780959095AD
S11322208E0F9F1F0895FC016150704001900110B2
S1132230D8F7809590958E0F9F1F0895FA01AA27CD
S1132240283051F1203181F1E8946F936E7F6E5FF5
S11322507F4F8F4F9F4FAF4FB1E03ED0B4E03CD0A3
S1132260670F781F891F9A1FA11D680F791F8A1F86
S1132270911DA11D6A0F711D811D911DA11D20D0ED
S113228009F468943F912AE0269F11243019305DA7
S11322903193DEF6CF010895462F4770405D419398
S11322A0B3E00FD0C9F7F6CF462F4F70405D4A33E5
S11322B018F0495D31FD4052419302D0A9F7EACFAD
S11322C0B4E0A6959795879577956795BA95C9F7DC
S11322D000976105710508959B01AC010A2E0694CF
S11322E05795479537952795BA95C9F7620F731F88
S11322F0841F951FA01D08950E94AB0DA59F900DEE
S1132300B49F900DA49F800D911D11240895B7FFD3
S11323100C947C110E947C11821B930B08952F92C4
S11323203F924F925F926F927F928F929F92AF9261
S1132330BF92CF92DF92EF92FF920F931F93CF93AE
S1132340DF93CDB7DEB7CA1BDB0B0FB6F894DEBF45
S11323500FBECDBF09942A88398848885F846E846B
S11323607D848C849B84AA84B984C884DF80EE80B5
S1132370FD800C811B81AA81B981CE0FD11D0FB6BE
S1132380F894DEBF0FBECDBFED010895F894FFCFE2
S1132390010000000000000300000000EA08220918
S11323A00000000100010101000101010000010120
S11323B0010100010401000001040002000000000A
S11323C00401000000000000000000000000000004
S11323D000000100020000000001000002000002F1
S11323E000010100000001000200000000000000E4
S11323F000000000000000000400000000000000D5
S113240000000000000101010101010400000000BE
S113241000010101000000000000010100000101B1
S113242001012E2F292B2C2A2D3A302820170F0694
S10D24303F065B4F666D7D077F6F6A
S9030000FC
