:100000000C948C010C94A9010C94A9010C94A901E5
:100010000C94A9010C94EC010C94A9010C94A90175
:100020000C94A9010C94A9010C94A9010C94A901A8
:100030000C94A9010C94A9010C94A9010C94A90198
:100040000C9445090C94A9010C94A9010C94A901E4
:100050000C9447060C9405060C94A9010C94A90174
:100060000C94A9010C94A9010C94A9010C94A90168
:100070000C94A9010C94A9010C94A9015468652061
:1000800077616C6C206973206F627374727563742E
:10009000696E6720796F752E00506C6179657220EA
:1000A00063616E2774206D6F7665207468726F755A
:1000B00067682077616C6C732E0054686520706CE3
:1000C000617965722068697420612077616C6C21A8
:1000D000005072657373202772272F2752272074D0
:1000E0006F20726573746172742C206F72202765A3
:1000F000272F27452720746F2065786974004741B2
:100100004D45204F56455200435353453230313010
:100110002F373230312050726F6A656374206279F4
:100120002053697468696B61204D616E6E616B6B01
:10013000617261202D203438303136373232006020
:10014000381F3F3F637EFE60BCB1B16166C3C060D3
:10015000B63FBF617CC3FE60B3B1B16166C306E068
:10016000B1313F3F637EFEF0F000F0F0F0F000F0C0
:100170000000F00000F000F00000F00000F000F0DF
:10018000F0F0F000F0F0000000000000000000F0CF
:10019000F0F0F0F0000000F0000000F0000000F0CF
:1001A000000000F0000000F0F0F0F0F000000000AF
:1001B00000000000000000F0F0F0F0F0F0F00000AF
:1001C0000000F0000000000000F000F0000000F06F
:1001D000F0000000F000000000000000000000F04F
:1001E000F0F0F0F0000000F0000000F0000000F07F
:1001F000000000F0000000F0F0F0F0F0000000005F
:1002000000000000000000F0F0F0F0F0F0F000F06E
:100210000000F000000000F00000F000000000F01E
:10022000F0F0F0000000000000000000000000F00E
:10023000F0F000F0000000F000F000F0000000F02E
:1002400000F000F0000000F0F0F0F0F0000000001E
:1002500000000000000000F0F0F0F0F000000000EE
:10026000000000F000000000000000F0000000F0BE
:10027000F0F0F0F0000000000000000000000000BE
:10028000000000000000003C3C3C3C3C3C00003CCA
:100290003C00003C3C00003C003C3C003C00003C7E
:1002A000003C3C003C00003C3C00003C3C00003C6E
:1002B0003C3C3C3C3C0000000000100010000010E2
:1002C00000001000100000001000001000101000CE
:1002D000001010001010100010000000001010108E
:1002E000000000000000000000000000000000000E
:1002F000000000000000001B5B3F32356C001B5B00
:1003000025646D001B5B324A001B5B306D001B5B7C
:1003100025643B256448000011241FBECFEFD8E0C0
:10032000DEBFCDBF11E0A0E0B1E0E4E7FBE102C039
:1003300005900D92A23AB107D9F723E0A2EAB1E005
:1003400001C01D92A635B207E1F70E9475050C9415
:10035000B80D0C9400001092A2011092A701E8E6DB
:10036000F0E08081826080838BB382608BBBECE69F
:10037000F0E080818F60808308958091A2018823BE
:10038000F9F08091A3015FB75078F89491E00BC029
:10039000292F30E0F901ED55FE4F4081F901EE556E
:1003A000FE4F40839F5F2091A201921788F39091A6
:1003B000A20191509093A201552319F078940895C9
:1003C0008FEF08958FB7F8941092A2011092A701B1
:1003D00088230CF4789408951F920F920FB60F9211
:1003E00011242F933F934F938F939F93EF93FF93FA
:1003F00043B14F7080E024C09091A2019430F8F492
:10040000242F30E0082E02C0359527950A94E2F794
:1004100020FF15C02091A70130E0082E02C03595BD
:1004200027950A94E2F720FD0AC0E091A20191E02D
:100430009E0F9093A201F0E0ED55FE4F80838F5FF9
:100440008430D0F24093A701FF91EF919F918F915B
:100450004F913F912F910F900FBE0F901F901895C5
:1004600090E1899FF0011124E555FE4FE60FF11D43
:1004700090819770923099F028F4992341F091304F
:1004800051F00895943079F0963089F0089540E065
:100490000E94130408954FEF0E94130408954CE343
:1004A0000E94130408954FE00E941304089540EF42
:1004B0000E9413040895CF93DF9385E08093AA01EF
:1004C00082E08093A9011092A801A0E027C08A2FA2
:1004D00090E027E030E0281B390B462F50E0FC016C
:1004E000E295F295F07FFE27E07FFE27ED5EFE4F5E
:1004F000E40FF51F7081C90182959295907F98272E
:10050000807F982785559E4FFC01E40FF51F70836F
:100510006F5F01C060E06031D0F2AF5FA830D0F310
:10052000D0E00AC06C2F8D2F0E943002CF5F01C037
:10053000C0E0C031B8F3DF5FD830D0F3DF91CF91A6
:1005400008959091A80181E089278093A8018823CC
:1005500041F040E16091A9018091AA010E94130439
:1005600008956091A9018091AA010E943002089526
:100570000F931F93CF93DF93C82F062FD091AA011B
:100580001091A901612F8D2F0E9430028091AA0144
:100590008C0F8093AA01893C18F087E08093AA0110
:1005A0008091AA01883010F01092AA018091A901CF
:1005B000800F8093A901893C18F08FE08093A901F6
:1005C0008091A901803110F01092A90181E08D0F76
:1005D0009FEF9D0F61E0610F3FEF310F1C16DCF5BF
:1005E000011139C0A82FB0E0412F50E0FD01E29584
:1005F000F295F07FFE27E07FFE27E555FE4FE40FE2
:10060000F51F7081723039F5FD01E295F295F07FAA
:10061000FE27E07FFE27E555FE4FE40FF51F108211
:100620009D012F5F3F4F22953295307F3227207FEB
:10063000322725553E4FF901E40FF51F92E09083D4
:100640006091A9010E9430026091A90182E08D0FA2
:100650000E94300297C0CC239CF5011131C0892F34
:1006600090E0412F50E0FC01E295F295F07FFE27EB
:10067000E07FFE27E555FE4FE40FF51F2081223075
:10068000F9F4FC01E295F295F07FFE27E07FFE276A
:10069000E555FE4FE40FF51F108201978295929564
:1006A000907F9827807F982785559E4FFC01E40F07
:1006B000F51F2083612F8EEF8D0F0E94300262C0E4
:1006C000C1112FC010166CF54D2F50E0862F90E011
:1006D000FA01E295F295F07FFE27E07FFE27E555CF
:1006E000FE4FE80FF91F20812230D9F4FA01E2957C
:1006F000F295F07FFE27E07FFE27E555FE4FDF01F4
:10070000A80FB91F1C920196E80FF91F82E08083A1
:100710008D2F0E94300262E0610F8D2F0E94300207
:1007200031C0C1112FC000236CF54D2F50E0832F35
:1007300090E0FA01E295F295F07FFE27E07FFE2738
:10074000E555FE4FE80FF91F20812230D9F4FA0158
:10075000E295F295F07FFE27E07FFE27E555FE4FFC
:10076000DF01A80FB91F1C920197E80FF91F82E063
:100770008083632F8D2F0E9430026EEF610F8D2FCB
:100780000E943002E091AA018091A90190E1E99FC5
:10079000F0011124E555FE4FE80FF11D80818130F5
:1007A000A1F5D093AA011093A9010E94000965E068
:1007B00070E08BE090E00E94E3080E94600A63E032
:1007C00070E00E947209009751F48AEB90E09F93C9
:1007D0008F930E94F30A0F900F9080E019C0019749
:1007E00051F489E990E09F938F930E94F30A0F9050
:1007F0000F9080E00DC08CE790E09F938F930E9454
:10080000F30A0F900F9080E003C00E94A10281E0E4
:10081000DF91CF911F910F91089580E0089580E8B6
:100820000E94ED0608951F93CF93DF936031B0F4DB
:100830008830A0F4142FD62FC82F81E00E9419070A
:100840008C2F877020E1829FC00111246D2F6F7063
:10085000862B0E941907812F0E941907DF91CF91E3
:100860001F9108950F931F93CF938031A0F48B01B4
:10087000C82F83E00E9419078C2F8F700E941907E0
:10088000C0E007C0F801EC0FF11D80810E9419073C
:10089000CF5FC830B8F3CF911F910F91089584E0D6
:1008A0000E94190782E00E94190708958FE00E94B4
:1008B000190708950E940F040E94AB0140E060E018
:1008C0007BE480E090E00E949A060E941F090E944B
:1008D0006A090E946F09789408950E9416090E947F
:1008E000F7080E94000965E083E00E94BD0865E00A
:1008F00070E08BE090E00E94E30888E091E09F9335
:100900008F930E94F30A0E9408080E94E2010F9050
:100910000F900E94BD018F3F31F00E943509CB013D
:100920000E94650A08950E94E106882391F0809153
:100930005003909151030E94790A8337910519F071
:100940008335910531F40E943509CB010E94650A77
:1009500008950E941208DDCF0E9416090E94000926
:100960000E945B020E94E2010E94E80608958F92B5
:100970009F92AF92BF92CF92DF92EF92FF92CF936E
:10098000DF930E9435094B015C0178C00E94BD01D4
:10099000C82F811106C061E080E00E94B8028093F8
:1009A0000401C13031F460E08FEF0E94B8028093FF
:1009B0000401C23031F460E081E00E94B80280930B
:1009C0000401C33031F46FEF80E00E94B8028093DD
:1009D00004010E94E1068823B9F1809150039091AF
:1009E00051030E94790AEC018436910519F0843490
:1009F000910531F461E080E00E94B8028093040127
:100A0000C337D10519F0C335D10531F460E08FEF5C
:100A10000E94B80280930401C737D10519F0C73589
:100A2000D10531F460E081E00E94B80280930401B6
:100A3000C136D10519F0C134D10531F46FEF80E032
:100A40000E94B8028093040180910401811103C0C7
:100A500081E0809304010E9435096B017C01D5017E
:100A6000C40188539F4FAF4FBF4FC816D906EA063F
:100A7000FB0620F00E94A102460157010E940D04CE
:100A8000882309F483CFDF91CF91FF90EF90DF901F
:100A9000CF90BF90AF909F908F9008956AE070E0E4
:100AA0008EE090E00E94E3088EEF90E09F938F939A
:100AB0000E94F30A6AE070E08FE090E00E94E30891
:100AC00081ED90E09F938F930E94F30A0F900F9017
:100AD0000F900F900E94E1068823E1F3809150036C
:100AE000909151030E94790AF5CF0E945A040E9406
:100AF0006D040E94AC040E94B7040E944E05CF937F
:100B0000C82F8A3019F48DE00E947F059FB7907836
:100B100002C0992329F180913D028F3FD1F3F894CF
:100B2000E0913C0281E08E0F80933C02F0E0E25CB9
:100B3000FD4FC08380913D028F5F80933D02809185
:100B40003C028F3F11F410923C02E1ECF0E0808116
:100B500080628083992339F0789480E090E005C02A
:100B600081E090E002C080E090E0CF910895809114
:100B70004F038823E1F32FB72078F89480913D0349
:100B800030914F0390E0831B91095AF4E0913D03AB
:100B900080914F03F0E0E81BF109E25BFC4F80819C
:100BA0000AC0E0913D0380914F03F0E0E81BF1099A
:100BB000E25CFC4F808190914F03915090934F03E2
:100BC000222309F0789490912C029B31B1F49091FA
:100BD0002B029B3591F4823449F018F4813461F092
:100BE0000CC0833429F0843429F007C083E705C0A2
:100BF00084E603C081E601C087E790912B029093C1
:100C00002C0280932B0290E008951F920F920FB652
:100C10000F9211242F938F939F93EF93FF938091C3
:100C20003D02882329F180913C0220913D0290E011
:100C3000821B91095AF4E0913C0280913D02F0E060
:100C4000E81BF109E35CFC4F90810AC0E0913C0293
:100C500080913D02F0E0E81BF109E25CFD4F9081DC
:100C600080913D02815080933D029093C60005C063
:100C7000E1ECF0E080818F7D8083FF91EF919F9187
:100C80008F912F910F900FBE0F901F9018951F926C
:100C90000F920FB60F9211242F933F934F935F93B0
:100CA0006F937F938F939F93AF93BF93CF93EF9364
:100CB000FF93C091C60080912D02882349F0809156
:100CC0003D028F3F29F060E070E08C2F0E947F058D
:100CD00080914F03803120F081E080934E0318C053
:100CE000CD3009F4CAE0E0913D0381E08E0F80939E
:100CF0003D03F0E0E25CFC4FC08380914F038F5FC7
:100D000080934F0380913D03803111F410923D0395
:100D1000FF91EF91CF91BF91AF919F918F917F9173
:100D20006F915F914F913F912F910F900FBE0F9058
:100D30001F90189510923C0210923D0210923D03B4
:100D400010924F0310924E0340932D02DC01CB0111
:100D5000880F991FAA1FBB1F880F991FAA1FBB1FAF
:100D60009C01AD01220F331F441F551F60E072E14B
:100D70008AE790E00E948609BA01A9014F5F5F4FA0
:100D80006F4F7F4FDB01CA011AF40196A11DB11DFF
:100D9000B595A7959795879501979093C5008093F2
:100DA000C400E1ECF0E088E180838081806880838A
:100DB000E0E5F3E085E091E0938382839183808393
:100DC000089590914F0381E0911101C080E0089552
:100DD00010923D0310924F03089594B1906B94B913
:100DE00095B1906195B990E59CBD883021F0803235
:100DF00011F0823019F491E09DBD01C01DBC80321C
:100E000069F028F4883071F0803161F00EC08034D0
:100E100029F0803851F48CB581608CBD8CB582602E
:100E20008CBD03C08CB581608CBD85B18F7E85B9CA
:100E300008958EBD0DB407FEFDCF8EB508951F93A6
:100E4000CF93DF93CDB7DEB728970FB6F894DEBF08
:100E50000FBECDBF10E017C0612F70E0660F771F87
:100E6000660F771F660F771F69597E4F48E050E085
:100E7000CE0101960E94700ABE016F5F7F4F812FE5
:100E80000E9432041F5F103138F328960FB6F89491
:100E9000DEBF0FBECDBFDF91CF911F910895CF93DD
:100EA000DF93CDB7DEB728970FB6F894DEBF0FBE3D
:100EB000CDBF0E944F0460912E0270E0660F771F35
:100EC000660F771F660F771F69597E4F48E050E025
:100ED000CE0101960E94700ABE016F5F7F4F8FE0C6
:100EE0000E94320440912E0250E04F5F5F4F9A0102
:100EF00036952795ABE7B4E10E94A50996958795AD
:100F000062E3689F9001699F300D1124CA01821B22
:100F1000930B80932E02803129F4809137028160F7
:100F20008093370228960FB6F894DEBF0FBECDBF70
:100F3000DF91CF910895EF92FF920F931F93CF937C
:100F4000DF93CDB7DEB728970FB6F894DEBF0FBE9C
:100F5000CDBFF62EE42E682F70E0660F771F660F68
:100F6000771F660F771F615C7E4F48E050E0CE012F
:100F700001960E94700A0FE310E00F1911092981F0
:100F80003A814B815C816D817E818F8198850E9441
:100F9000B609217030E040E050E060E070E080E0B1
:100FA00090E0A0E00E94D209C1F0E1101BC010E067
:100FB0000FC0812F90E0FC01E656FE4F20812F15D7
:100FC00030F0FC01ED56FE4F80810E9409091F5F41
:100FD000173078F3EE24E39405C0EE2019F00E9458
:100FE000F708E12C609152037091530380E290E086
:100FF0000E94B70A8E2D28960FB6F894DEBF0FBE5A
:10100000CDBFDF91CF911F910F91FF90EF90089589
:101010000E9456040E941F078091370281608093CE
:1010200037020895CF92DF92EF92FF920E94350926
:101030006B017C018091370280FF16C0C0923302A1
:10104000D0923402E0923502F0923602C0922F0222
:10105000D0923002E0923102F092320290E190930D
:101060002E02887F8093370280912E02803109F012
:1010700064C08091330290913402A0913502B09106
:101080003602AC01BD014053584F6F4F7F4F4C1596
:101090005D056E057F0558F40E944F07C0922F0230
:1010A000D0923002E0923102F092320261C020917F
:1010B0003702322F327021FD19C088519C4FAF4F3B
:1010C000BF4F8C159D05AE05BF0580F40E941F071C
:1010D00080913702826080933702C0922F02D092B3
:1010E0003002E0923102F092320242C0311140C02F
:1010F00080912F0290913002A0913102B091320282
:101100008C599F4FAF4FBF4F8C159D05AE05BF0546
:1011100078F584E028272093370222FF03C00E943D
:10112000560402C00E941F07C0922F02D0923002C4
:10113000E0923102F09232021BC080912F02909116
:101140003002A0913102B091320288539F4FAF4FCD
:10115000BF4F8C159D05AE05BF0550F40E944F078B
:10116000C0922F02D0923002E0923102F09232020D
:10117000FF90EF90DF90CF900895FF920F931F9311
:10118000CF93DF93F82E062F10E0D0E014C0602F2D
:1011900070E08F2D90E0810F911D0E94E308C0E068
:1011A00007C04D2F6C2F812F0E949B07D82FCF5F38
:1011B000C034B8F31F5F153050F3DF91CF911F910A
:1011C0000F91FF9008956F5F7F4F7F936F9301960C
:1011D0009F938F938EE093E09F938F930E94F30AE7
:1011E0000F900F900F900F900F900F90089589E03F
:1011F00093E09F938F930E94F30A0F900F900895AE
:1012000084E093E09F938F930E94F30A0F900F90D6
:1012100008951F928F938EEF92E09F938F930E9479
:10122000F30A0F900F900F900F90089587EF92E0C0
:101230009F938F930E94F30A0F900F90089510923E
:1012400038021092390210923A0210923B0216BCF8
:101250008CE787BD92E094BD83E085BDEEE6F0E0CB
:1012600080818260808395BB08958FB7282F207876
:10127000F894609138027091390280913A0290910D
:101280003B02222309F0789408951F920F920FB623
:101290000F9211248F939F93AF93BF938091380245
:1012A00090913902A0913A02B0913B020196A11DA2
:1012B000B11D8093380290933902A0933A02B09303
:1012C0003B02BF91AF919F918F910F900FBE0F90F6
:1012D0001F90189510928500109284000895109226
:1012E000B200089597FB072E16F4009407D077FDFF
:1012F00009D00E94DE0907FC05D03EF49095819547
:101300009F4F0895709561957F4F0895052E97FB27
:101310001EF400940E949D0957FD07D00E94F20917
:1013200007FC03D04EF40C949D09509540953095E0
:1013300021953F4F4F4F5F4F089590958095709541
:1013400061957F4F8F4F9F4F0895A29FB001B39F2C
:10135000C001A39F700D811D1124911DB29F700DBE
:10136000811D1124911D089597FB10F81694000813
:101370000F93083098F00850232F342F452F562F05
:10138000672F782F892F902DF4CF05949795879507
:101390007795679557954795379527950A95AAF7B5
:1013A0000F9108950024A7FD00942A1730054005E9
:1013B000500560057005800590050895AA1BBB1BAC
:1013C00051E107C0AA1FBB1FA617B70710F0A61B45
:1013D000B70B881F991F5A95A9F780959095BC0166
:1013E000CD010895A1E21A2EAA1BBB1BFD010DC061
:1013F000AA1FBB1FEE1FFF1FA217B307E407F507C5
:1014000020F0A21BB30BE40BF50B661F771F881FA0
:10141000991F1A9469F760957095809590959B0136
:10142000AC01BD01CF0108958F929F92AF92BF9200
:10143000CF92DF92EF92FF92CF93DF93EC0168811E
:1014400079818A819B81611571058105910521F45E
:1014500064E279ED8BE597E02DE133EF41E050E078
:101460000E94860949015A019B01AC01A7EAB1E437
:101470000E946E0D6B017C01ACEEB4EFA5019401EE
:101480000E947C0DDC01CB018C0D9D1DAE1DBF1D8E
:10149000B7FF03C00197A109B04888839983AA8345
:1014A000BB839F77DF91CF91FF90EF90DF90CF903C
:1014B000BF90AF909F908F9008950E94140A089556
:1014C00080E091E00E94140A0895A0E0B0E08093CB
:1014D000000190930101A0930201B09303010895CC
:1014E000FB01DC0102C005900D9241505040D8F73D
:1014F0000895CF93DF93EC012B8120FF33C026FFAB
:101500000AC02F7B2B838E819F8101969F838E83C0
:101510008A8190E029C022FF0FC0E881F981808193
:10152000082E000C990B009719F420622B831AC027
:101530003196F983E8830EC0EA85FB85099597FF0C
:1015400009C02B81019611F080E201C080E1822B5D
:101550008B8308C02E813F812F5F3F4F3F832E83B7
:10156000992702C08FEF9FEFDF91CF9108950F93DE
:101570001F93CF93DF93FB01238121FD03C08FEFE6
:101580009FEF2CC022FF16C04681578124813581F0
:101590004217530744F4A081B1819D012F5F3F4F53
:1015A000318320838C93268137812F5F3F4F378390
:1015B000268314C08B01EC01FB010084F185E02D32
:1015C0000995892BE1F6D80116968D919C91179774
:1015D000019617969C938E931697CE01DF91CF912B
:1015E0001F910F910895A0E0B0E0E9EFFAE00C94AC
:1015F0008F0DAE01495F5F4FDA016D917D91AD01B5
:1016000000E513E0F80182819381DC0113962C91AF
:101610001397286013962C930E94190BD8011296E9
:10162000ED91FC9113972381277F2383E4E00C94B1
:10163000AB0DABE0B0E0EFE1FBE00C94810D6C0191
:101640007B018A01FC0117821682838181FFCCC154
:10165000CE0101963C01F6019381F70193FD85913E
:1016600093FF81917F01882309F4BAC1853239F44F
:1016700093FD859193FF81917F01853229F4B60115
:1016800090E00E94B70AE7CF912C212C312CFFE18A
:10169000F315D8F08B3279F038F4803279F0833258
:1016A000A1F4232D20611DC08D3261F0803369F4D7
:1016B000232D216016C0832D8260382EE32DE46037
:1016C0003E2E2AC0F32DF8601DC037FC2DC020ED42
:1016D000280F2A3040F08E32B9F436FC81C1232D18
:1016E0002064322E19C036FE06C08AE0989E200D76
:1016F0001124922E11C0EAE02E9E200D1124222EDC
:10170000F32DF0623F2E08C08C3621F4832D8068C3
:10171000382E02C0883641F4F70193FD859193FF7E
:1017200081917F018111B3CF982F9F7D9554933084
:1017300028F40C5F1F4F9FE399830DC0833631F06F
:10174000833771F0833509F059C021C0F8018081D9
:1017500089830E5F1F4F88248394912C530113C0FB
:101760002801F2E04F0E511CF801A080B18036FE36
:1017700003C0692D70E002C06FEF7FEFC5010E94CA
:10178000050D4C018201F32DFF773F2E16C0280175
:1017900022E0420E511CF801A080B18036FE03C049
:1017A000692D70E002C06FEF7FEFC5010E94FA0C57
:1017B0004C01F32DF0683F2E820133FC1BC0822DBB
:1017C00090E088169906B0F4B60180E290E00E949D
:1017D000B70A2A94F4CFF50137FC859137FE819141
:1017E0005F01B60190E00E94B70A21102A9421E01F
:1017F000821A91088114910471F7E8C0843611F0BF
:10180000893641F5F80137FE07C060817181828118
:1018100093810C5F1F4F08C060817181072E000CFF
:10182000880B990B0E5F1F4FF32DFF763F2E97FF0E
:1018300009C090958095709561957F4F8F4F9F4F10
:10184000F0683F2E2AE030E0A3010E94100D882EA0
:10185000861845C0853731F4232D2F7EB22E2AE01D
:1018600030E025C0932D997FB92E8F36C1F018F442
:10187000883579F0B5C0803719F0883721F0B0C0CD
:10188000E92FE061BE2EB4FE0DC0FB2DF460BF2E2B
:1018900009C034FE0AC0292F2660B22E06C028E0F7
:1018A00030E005C020E130E002C020E132E0F80184
:1018B000B7FE07C060817181828193810C5F1F4FE9
:1018C00006C06081718180E090E00E5F1F4FA30130
:1018D0000E94100D882E8618FB2DFF773F2E36FEB6
:1018E0000DC0232D2E7FA22E891458F434FE0BC078
:1018F00032FC09C0832D8E7EA82E05C0B82CA32CE7
:1019000003C0B82C01C0B92CA4FE0FC0FE01E80D25
:10191000F11D8081803321F49A2D997EA92E09C072
:10192000A2FE06C0B394B39404C08A2D867809F051
:10193000B394A3FC11C0A0FE06C0B21488F4280C16
:10194000922C9B180EC0B21460F4B60180E290E0B5
:101950000E94B70AB394F7CFB21418F42B1802C040
:10196000982C212CA4FE10C0B60180E390E00E94C8
:10197000B70AA2FE17C0A1FC03C088E790E002C02E
:1019800088E590E0B6010CC08A2D867859F0A1FE5A
:1019900002C08BE201C080E2A7FC8DE2B60190E0BC
:1019A0000E94B70A891438F4B60180E390E00E94DF
:1019B000B70A9A94F7CF8A94F301E80DF11D80815C
:1019C000B60190E00E94B70A8110F5CF222009F4F9
:1019D00042CEB60180E290E00E94B70A2A94F6CF88
:1019E000F6018681978102C08FEF9FEF2B96E2E18F
:1019F0000C949D0DFC010590615070400110D8F7CA
:101A0000809590958E0F9F1F0895FC016150704046
:101A100001900110D8F7809590958E0F9F1F089523
:101A2000FA01AA27283051F1203181F1E8946F930F
:101A30006E7F6E5F7F4F8F4F9F4FAF4FB1E03ED0B5
:101A4000B4E03CD0670F781F891F9A1FA11D680F53
:101A5000791F8A1F911DA11D6A0F711D811D911D86
:101A6000A11D20D009F468943F912AE0269F1124FB
:101A70003019305D3193DEF6CF010895462F47705F
:101A8000405D4193B3E00FD0C9F7F6CF462F4F70BA
:101A9000405D4A3318F0495D31FD4052419302D018
:101AA000A9F7EACFB4E0A6959795879577956795BE
:101AB000BA95C9F700976105710508959B01AC01BE
:101AC0000A2E06945795479537952795BA95C9F7E5
:101AD000620F731F841F951FA01D08950E94A50902
:101AE000A59F900DB49F900DA49F800D911D112472
:101AF0000895B7FF0C946E0D0E946E0D821B930B20
:101B000008952F923F924F925F926F927F928F92A1
:101B10009F92AF92BF92CF92DF92EF92FF920F937C
:101B20001F93CF93DF93CDB7DEB7CA1BDB0B0FB686
:101B3000F894DEBF0FBECDBF09942A883988488843
:101B40005F846E847D848C849B84AA84B984C884D9
:101B5000DF80EE80FD800C811B81AA81B981CE0FD0
:101B6000D11D0FB6F894DEBF0FBECDBFED010895B5
:041B7000F894FFCF17
:101B7400010000000100000003000000007F05B721
:101B84000500000001000101010001010100000144
:101B94000101010001040100000104000200000031
:101BA400000401000000000000000000000000002C
:101BB400000000010002000000000100000200001B
:101BC400020001010000000100020000000000000A
:101BD40000000000000000000004000000000000FD
:101BE40000000000000001010101010104000000E7
:101BF40000000101010000000000000101000001DB
:101C04000101012E2F292B2C2A2D3A302820170FC1
:021C14000600C8
:00000001FF
