S018000043535345323031305F70726F6A6563742E73726563C5
S11300000C946D010C948A010C948A010C948A015D
S11300100C948A010C94CD010C948A010C948A01ED
S11300200C948A010C948A010C948A010C948A0120
S11300300C948A010C948A010C948A010C948A0110
S11300400C9421080C948A010C948A010C948A0162
S11300500C9423050C94E1040C948A010C948A01F9
S11300600C948A010C948A010C948A010C948A01E0
S11300700C948A010C948A010C948A015072657361
S113008073202772272F27522720746F20726573DD
S1130090746172742C206F72202765272F274527DF
S11300A020746F20657869740047414D45204F5690
S11300B045520054686520706C61796572206869E6
S11300C07420612077616C6C2100435353453230B6
S11300D031302F373230312050726F6A65637420AB
S11300E062792053697468696B61204D616E6E6139
S11300F06B6B617261202D203438303136373232E7
S11301000060381F3F3F637EFE60BCB1B16166C3CF
S1130110C060B63FBF617CC3FE60B3B1B16166C36A
S113012006E0B1313F3F637EFEF0F000F0F0F0F006
S113013000F00000F00000F000F00000F00000F01B
S113014000F0F0F0F000F0F000000000000000000B
S113015000F0F0F0F0F0000000F0000000F000000B
S113016000F0000000F0000000F0F0F0F0F00000FB
S1130170000000000000000000F0F0F0F0F0F0F0EB
S113018000000000F0000000000000F000F000009B
S113019000F0F0000000F00000000000000000008B
S11301A000F0F0F0F0F0000000F0000000F00000BB
S11301B000F0000000F0000000F0F0F0F0F00000AB
S11301C0000000000000000000F0F0F0F0F0F0F09B
S11301D000F00000F000000000F00000F00000005B
S11301E000F0F0F0F000000000000000000000004B
S11301F000F0F0F000F0000000F000F000F000006B
S113020000F000F000F0000000F0F0F0F0F000006A
S1130210000000000000000000F0F0F0F0F000002A
S11302200000000000F000000000000000F00000EA
S113023000F0F0F0F0F0000000000000000000000A
S11302400000000000000000003C3C3C3C3C3C0042
S1130250003C3C00003C3C00003C003C3C003C00BA
S1130260003C003C3C003C00003C3C00003C3C00AA
S1130270003C3C3C3C3C3C000000000010001000F2
S1130280001000001000100000001000001000100A
S113029010000010100010101000100000000010DA
S11302A0101000000000000000000000000000002A
S11302B00000000000000000001B5B3F32356C00B2
S11302C01B5B25646D001B5B324A001B5B306D00B9
S11302D01B5B25643B256448000011241FBECFEF3F
S11302E0D8E0DEBFCDBF11E0A0E0B1E0EEEFF7E172
S11302F002C005900D92AE39B107D9F723E0AEE9FB
S1130300B1E001C01D92A235B207E1F70E94510489
S11303100C94FD0B0C94000010929E011092A3010A
S1130320E8E6F0E08081826080838BB382608BBBDF
S1130330ECE6F0E080818F608083089580919E01D7
S11303408823F9F080919F015FB75078F89491E089
S11303500BC0292F30E0F901E156FE4F4081F9012D
S1130360E256FE4F40839F5F20919E01921788F3CF
S113037090919E01915090939E01552319F0789489
S113038008958FEF08958FB7F89410929E011092FC
S1130390A30188230CF4789408951F920F920FB64A
S11303A00F9211242F933F934F938F939F93EF9327
S11303B0FF9343B14F7080E024C090919E0194302C
S11303C0F8F4242F30E0082E02C0359527950A94BE
S11303D0E2F720FF15C02091A30130E0082E02C0EF
S11303E0359527950A94E2F720FD0AC0E0919E0115
S11303F091E09E0F90939E01F0E0E156FE4F8083C2
S11304008F5F8430D0F24093A301FF91EF919F91CD
S11304108F914F913F912F910F900FBE0F901F908E
S1130420189590E1899FF0011124E955FE4FE60FDC
S1130430F11D90819770923099F028F4992341F03E
S1130440913051F00895943079F0963089F0089500
S113045040E00E94EA0208954FEF0E94EA020895E4
S11304604CE30E94EA0208954FE00E94EA020895D4
S113047040EF0E94EA020895CF93DF9385E08093D2
S1130480A60182E08093A5011092A401A0E027C0F8
S11304908A2F90E027E030E0281B390B462F50E0EC
S11304A0FC01E295F295F07FFE27E07FFE27E15FF5
S11304B0FE4FE40FF51F7081C90182959295907FDC
S11304C09827807F982789559E4FFC01E40FF51FDC
S11304D070836F5F01C060E06031D0F2AF5FA8301D
S11304E0D0F3D0E00AC06C2F8D2F0E941102CF5F91
S11304F001C0C0E0C031B8F3DF5FD830D0F3DF9182
S1130500CF9108959091A40181E089278093A4015B
S1130510882341F040E16091A5018091A6010E94E9
S1130520EA0208956091A5018091A6010E9411023A
S113053008950F931F93CF93DF93082F162FD09115
S1130540A601C091A5016C2F8D2F0E9411028091EC
S1130550A601800F8093A601893C18F087E0809360
S1130560A6018091A601883010F01092A601609136
S1130570A501610F6093A501693C18F08FE0809399
S1130580A5018091A501803110F01092A501E091A0
S1130590A6018091A50190E1E99FF0011124E9559C
S11305A0FE4FE80FF11D8081813031F4D093A60114
S11305B0C093A50180E003C00E94820281E0DF9124
S11305C0CF911F910F91089580E0089580E80E94D3
S11305D0C90508951F93CF93DF936031B0F4883039
S11305E0A0F4142FD62FC82F81E00E94F5058C2F7C
S11305F0877020E1829FC00111246D2F6F70862BBC
S11306000E94F505812F0E94F505DF91CF911F917E
S113061008950F931F93CF938031A0F48B01C82FBB
S113062083E00E94F5058C2F8F700E94F505C0E0D1
S113063007C0F801EC0FF11D80810E94F505CF5F22
S1130640C830B8F3CF911F910F91089584E00E94B0
S1130650F50582E00E94F50508958FE00E94F505F6
S113066008950E94E6020E948C0140E060E07BE471
S113067080E090E00E9476050E94FB070E944608F5
S11306800E944B08789408950E94F2070E94D307B1
S11306900E94DC0765E083E00E94990765E070E052
S11306A08BE090E00E94BF078AEC90E09F938F93C9
S11306B00E944B090E94E4060E94C3010F900F9010
S11306C00E949E018F3F99F40E94BD05882361F02A
S11306D080914C0390914D030E94D108833791057A
S11306E031F08335910519F00E94EE06E9CF0895A3
S11306F00E94F2070E94DC070E943C020E94C30190
S11307000E94C40508958F929F92AF92BF92CF9298
S1130710DF92EF92FF92CF93DF930E9411084B0177
S11307205C0188C00E949E01C82F811106C061E04F
S113073080E00E94990280930001C13031F460E0AE
S11307408FEF0E94990280930001C23031F460E07F
S113075081E00E94990280930001C33031F46FEF6D
S113076080E00E949902809300010E94BD058823C5
S1130770B9F180914C0390914D030E94D108EC0192
S11307808436910519F08434910531F461E080E0F8
S11307900E94990280930001C337D10519F0C33533
S11307A0D10531F460E08FEF0E949902809300013B
S11307B0C737D10519F0C735D10531F460E081E0C0
S11307C00E94990280930001C136D10519F0C13409
S11307D0D10531F46FEF80E00E949902809300010B
S11307E080910001811113C00E94DC0765E070E074
S11307F08BE090E00E94BF0783EB90E09F938F9380
S11308000E944B0981E0809300010F900F900E9499
S113081011086B017C01D501C40188539F4FAF4F70
S1130820BF4FC816D906EA06FB0620F00E948202D2
S1130830460157010E94E402882309F473CFDF9133
S1130840CF91FF90EF90DF90CF90BF90AF909F90AB
S11308508F9008956AE070E08EE090E00E94BF07F8
S113086089EA90E09F938F930E944B096AE070E0BD
S11308708FE090E00E94BF078CE790E09F938F93F6
S11308800E944B090F900F900F900F900E94BD058E
S11308908823E1F380914C0390914D030E94D10889
S11308A0F5CF0E9431030E9444030E9478030E9402
S11308B083030E942A04CF93C82F8A3019F48DE051
S11308C00E945B049FB7907802C0992329F180911C
S11308D039028F3FD1F3F894E091380281E08E0F12
S11308E080933802F0E0E65CFD4FC08380913902CA
S11308F08F5F80933902809138028F3F11F41092F8
S11309003802E1ECF0E0808180628083992339F041
S1130910789480E090E005C081E090E002C080E03F
S113092090E0CF91089580914B038823E1F32FB792
S11309302078F8948091390330914B0390E0831B25
S113094091095AF4E091390380914B03F0E0E81BDC
S1130950F109E65BFC4F80810AC0E0913903809184
S11309604B03F0E0E81BF109E65CFC4F80819091B9
S11309704B03915090934B03222309F07894909168
S113098028029B31B1F4909127029B3591F4823473
S113099049F018F4813461F00CC0833429F08434B4
S11309A029F007C083E705C084E603C081E601C0DF
S11309B087E790912702909328028093270290E082
S11309C008951F920F920FB60F9211242F938F93B5
S11309D09F93EF93FF9380913902882329F18091AB
S11309E038022091390290E0821B91095AF4E09177
S11309F0380280913902F0E0E81BF109E75CFC4F12
S1130A0090810AC0E091380280913902F0E0E81B3D
S1130A10F109E65CFD4F9081809139028150809309
S1130A2039029093C60005C0E1ECF0E080818F7D2F
S1130A308083FF91EF919F918F912F910F900FBE23
S1130A400F901F9018951F920F920FB60F921124BA
S1130A502F933F934F935F936F937F938F939F93C2
S1130A60AF93BF93CF93EF93FF93C091C600809150
S1130A702902882349F0809139028F3F29F060E0F0
S1130A8070E08C2F0E945B0480914B03803120F036
S1130A9081E080934A0318C0CD3009F4CAE0E091A4
S1130AA0390381E08E0F80933903F0E0E65CFC4F5C
S1130AB0C08380914B038F5F80934B0380913903F4
S1130AC0803111F410923903FF91EF91CF91BF91CE
S1130AD0AF919F918F917F916F915F914F913F91D2
S1130AE02F910F900FBE0F901F90189510923802FF
S1130AF0109239021092390310924B0310924A0358
S1130B0040932902DC01CB01880F991FAA1FBB1F48
S1130B10880F991FAA1FBB1F9C01AD01220F331F11
S1130B20441F551F60E072E18AE790E00E944E087E
S1130B30BA01A9014F5F5F4F6F4F7F4FDB01CA01BD
S1130B401AF40196A11DB11DB595A79597958795A2
S1130B5001979093C5008093C400E1ECF0E088E134
S1130B608083808180688083ECE4F3E081E091E01D
S1130B709383828391838083089590914B0381E0D2
S1130B80911101C080E008951092390310924B0333
S1130B90089594B1906B94B995B1906195B990E52D
S1130BA09CBD883021F0803211F0823019F491E03C
S1130BB09DBD01C01DBC803269F028F4883071F0FD
S1130BC0803161F00EC0803429F0803851F48CB546
S1130BD081608CBD8CB582608CBD03C08CB5816096
S1130BE08CBD85B18F7E85B908958EBD0DB407FE89
S1130BF0FDCF8EB508951F93CF93DF93CDB7DEB7A6
S1130C0028970FB6F894DEBF0FBECDBF10E017C013
S1130C10612F70E0660F771F660F771F660F771FCF
S1130C20675D7E4F48E050E0CE0101960E94C808FF
S1130C30BE016F5F7F4F812F0E9409031F5F103138
S1130C4038F328960FB6F894DEBF0FBECDBFDF9100
S1130C50CF911F910895CF93DF93CDB7DEB7289737
S1130C600FB6F894DEBF0FBECDBF0E94260360917D
S1130C702A0270E0660F771F660F771F660F771FD3
S1130C80675D7E4F48E050E0CE0101960E94C8089F
S1130C90BE016F5F7F4F8FE00E94090340912A02DB
S1130CA050E04F5F5F4F9A0136952795ABE7B4E16B
S1130CB00E946D089695879562E3689F9001699FED
S1130CC0300D1124CA01821B930B80932A028031B8
S1130CD029F48091330281608093330228960FB601
S1130CE0F894DEBF0FBECDBFDF91CF910895EF9290
S1130CF0FF920F931F93CF93DF93CDB7DEB728975F
S1130D000FB6F894DEBF0FBECDBFF62EE42E682FCB
S1130D1070E0660F771F660F771F660F771F6F5F90
S1130D207E4F48E050E0CE0101960E94C8080FE3D0
S1130D3010E00F19110929813A814B815C816D8181
S1130D407E818F8198850E947E08217030E040E08A
S1130D5050E060E070E080E090E0A0E00E949A083B
S1130D60C1F0E1101BC010E00FC0812F90E0FC0126
S1130D70EA56FE4F20812F1530F0FC01E157FE4F5B
S1130D8080810E94E5071F5F173078F3EE24E39417
S1130D9005C0EE2019F00E94D307E12C60914E03A8
S1130DA070914F0380E290E00E940F098E2D2896E7
S1130DB00FB6F894DEBF0FBECDBFDF91CF911F9168
S1130DC00F91FF90EF9008950E942D030E94FB0560
S1130DD0809133028160809333020895CF92DF9231
S1130DE0EF92FF920E9411086B017C018091330203
S1130DF080FF16C0C0922F02D0923002E0923102DE
S1130E00F0923202C0922B02D0922C02E0922D0278
S1130E10F0922E0290E190932A02887F809333020D
S1130E2080912A02803109F064C080912F02909150
S1130E303002A0913102B0913202AC01BD014053A5
S1130E40584F6F4F7F4F4C155D056E057F0558F465
S1130E500E942B06C0922B02D0922C02E0922D020B
S1130E60F0922E0261C020913302322F327021FDA4
S1130E7019C088519C4FAF4FBF4F8C159D05AE05CF
S1130E80BF0580F40E94FB05809133028260809349
S1130E903302C0922B02D0922C02E0922D02F092E7
S1130EA02E0242C0311140C080912B0290912C023D
S1130EB0A0912D02B0912E028C599F4FAF4FBF4F7E
S1130EC08C159D05AE05BF0578F584E02827209391
S1130ED0330222FF03C00E942D0302C00E94FB05BF
S1130EE0C0922B02D0922C02E0922D02F0922E029C
S1130EF01BC080912B0290912C02A0912D02B091E5
S1130F002E0288539F4FAF4FBF4F8C159D05AE05E2
S1130F10BF0550F40E942B06C0922B02D0922C02E3
S1130F20E0922D02F0922E02FF90EF90DF90CF908E
S1130F300895FF920F931F93CF93DF93F82E062FFC
S1130F4010E0D0E014C0602F70E08F2D90E0810F8E
S1130F50911D0E94BF07C0E007C04D2F6C2F812F49
S1130F600E947706D82FCF5FC034B8F31F5F1530C7
S1130F7050F3DF91CF911F910F91FF9008956F5F10
S1130F807F4F7F936F9301969F938F9380ED92E0B1
S1130F909F938F930E944B090F900F900F900F9087
S1130FA00F900F9008958BEC92E09F938F930E9483
S1130FB04B090F900F90089586EC92E09F938F93C6
S1130FC00E944B090F900F9008951F928F9380EC0D
S1130FD092E09F938F930E944B090F900F900F9074
S1130FE00F90089589EB92E09F938F930E944B0991
S1130FF00F900F90089510923402109235021092BF
S113100036021092370216BC8CE787BD92E094BD7D
S113101083E085BDEEE6F0E080818260808395BB4D
S113102008958FB7282F2078F89460913402709136
S113103035028091360290913702222309F0789488
S113104008951F920F920FB60F9211248F939F93BE
S1131050AF93BF938091340290913502A0913602F0
S1131060B09137020196A11DB11D80933402909373
S11310703502A0933602B0933702BF91AF919F918E
S11310808F910F900FBE0F901F90189510928500AE
S11310901092840008951092B2000895052E97FBD3
S11310A01EF400940E94650857FD07D00E94A6080C
S11310B007FC03D04EF40C94650850954095309588
S11310C021953F4F4F4F5F4F0895909580957095B0
S11310D061957F4F8F4F9F4F0895A29FB001B39F9B
S11310E0C001A39F700D811D1124911DB29F700D2D
S11310F0811D1124911D089597FB10F81694000882
S11311000F93083098F00850232F342F452F562F73
S1131110672F782F892F902DF4CF05949795879575
S11311207795679557954795379527950A95AAF723
S11311300F9108950024A7FD00942A173005400557
S1131140500560057005800590050895A1E21A2EEA
S1131150AA1BBB1BFD010DC0AA1FBB1FEE1FFF1F57
S1131160A217B307E407F50720F0A21BB30BE40BA7
S1131170F50B661F771F881F991F1A9469F76095EE
S11311807095809590959B01AC01BD01CF010895A8
S1131190FB01DC0102C005900D9241505040D8F78C
S11311A00895CF93DF93EC012B8120FF33C026FFFA
S11311B00AC02F7B2B838E819F8101969F838E8310
S11311C08A8190E029C022FF0FC0E881F9818081E3
S11311D0082E000C990B009719F420622B831AC077
S11311E03196F983E8830EC0EA85FB85099597FF5C
S11311F009C02B81019611F080E201C080E1822BAD
S11312008B8308C02E813F812F5F3F4F3F832E8306
S1131210992702C08FEF9FEFDF91CF9108950F932D
S11312201F93CF93DF93FB01238121FD03C08FEF35
S11312309FEF2CC022FF16C046815781248135813F
S11312404217530744F4A081B1819D012F5F3F4FA2
S1131250318320838C93268137812F5F3F4F3783DF
S1131260268314C08B01EC01FB010084F185E02D81
S11312700995892BE1F6D80116968D919C911797C3
S1131280019617969C938E931697CE01DF91CF917A
S11312901F910F910895A0E0B0E0E1E5F9E00C940E
S11312A0D40BAE01495F5F4FDA016D917D91AD01C1
S11312B00CE413E0F80182819381DC0113962C91F4
S11312C01397286013962C930E947109D8011296E3
S11312D0ED91FC9113972381277F2383E4E00C9401
S11312E0F00BABE0B0E0E7E7F9E00C94C60B6C015F
S11312F07B018A01FC0117821682838181FFCCC1A4
S1131300CE0101963C01F6019381F70193FD85918D
S113131093FF81917F01882309F4BAC1853239F49E
S113132093FD859193FF81917F01853229F4B60164
S113133090E00E940F09E7CF912C212C312CFFE182
S1131340F315D8F08B3279F038F4803279F08332A7
S1131350A1F4232D20611DC08D3261F0803369F426
S1131360232D216016C0832D8260382EE32DE46086
S11313703E2E2AC0F32DF8601DC037FC2DC020ED91
S1131380280F2A3040F08E32B9F436FC81C1232D67
S11313902064322E19C036FE06C08AE0989E200DC5
S11313A01124922E11C0EAE02E9E200D1124222E2B
S11313B0F32DF0623F2E08C08C3621F4832D806813
S11313C0382E02C0883641F4F70193FD859193FFCE
S11313D081917F018111B3CF982F9F7D95549330D4
S11313E028F40C5F1F4F9FE399830DC0833631F0BF
S11313F0833771F0833509F059C021C0F801808129
S113140089830E5F1F4F88248394912C530113C04A
S11314102801F2E04F0E511CF801A080B18036FE85
S113142003C0692D70E002C06FEF7FEFC5010E9419
S11314305D0B4C018201F32DFF773F2E16C028016E
S113144022E0420E511CF801A080B18036FE03C098
S1131450692D70E002C06FEF7FEFC5010E94520B4F
S11314604C01F32DF0683F2E820133FC1BC0822D0A
S113147090E088169906B0F4B60180E290E00E94EC
S11314800F092A94F4CFF50137FC859137FE819139
S11314905F01B60190E00E940F0921102A9421E017
S11314A0821A91088114910471F7E8C0843611F00E
S11314B0893641F5F80137FE07C060817181828168
S11314C093810C5F1F4F08C060817181072E000C4F
S11314D0880B990B0E5F1F4FF32DFF763F2E97FF5E
S11314E009C090958095709561957F4F8F4F9F4F60
S11314F0F0683F2E2AE030E0A3010E94680B882E9A
S1131500861845C0853731F4232D2F7EB22E2AE06C
S113151030E025C0932D997FB92E8F36C1F018F491
S1131520883579F0B5C0803719F0883721F0B0C01C
S1131530E92FE061BE2EB4FE0DC0FB2DF460BF2E7A
S113154009C034FE0AC0292F2660B22E06C028E046
S113155030E005C020E130E002C020E132E0F801D3
S1131560B7FE07C060817181828193810C5F1F4F38
S113157006C06081718180E090E00E5F1F4FA3017F
S11315800E94680B882E8618FB2DFF773F2E36FEAF
S11315900DC0232D2E7FA22E891458F434FE0BC0C7
S11315A032FC09C0832D8E7EA82E05C0B82CA32C36
S11315B003C0B82C01C0B92CA4FE0FC0FE01E80D75
S11315C0F11D8081803321F49A2D997EA92E09C0C2
S11315D0A2FE06C0B394B39404C08A2D867809F0A1
S11315E0B394A3FC11C0A0FE06C0B21488F4280C66
S11315F0922C9B180EC0B21460F4B60180E290E005
S11316000E940F09B394F7CFB21418F42B1802C038
S1131610982C212CA4FE10C0B60180E390E00E9417
S11316200F09A2FE17C0A1FC03C088E790E002C026
S113163088E590E0B6010CC08A2D867859F0A1FEA9
S113164002C08BE201C080E2A7FC8DE2B60190E00B
S11316500E940F09891438F4B60180E390E00E94D7
S11316600F099A94F7CF8A94F301E80DF11D808154
S1131670B60190E00E940F098110F5CF222009F4F1
S113168042CEB60180E290E00E940F092A94F6CF80
S1131690F6018681978102C08FEF9FEF2B96E2E1DE
S11316A00C94E20BFC010590615070400110D8F7D6
S11316B0809590958E0F9F1F0895FC016150704096
S11316C001900110D8F7809590958E0F9F1F089573
S11316D0FA01AA27283051F1203181F1E8946F935F
S11316E06E7F6E5F7F4F8F4F9F4FAF4FB1E03ED005
S11316F0B4E03CD0670F781F891F9A1FA11D680FA3
S1131700791F8A1F911DA11D6A0F711D811D911DD5
S1131710A11D20D009F468943F912AE0269F11244A
S11317203019305D3193DEF6CF010895462F4770AE
S1131730405D4193B3E00FD0C9F7F6CF462F4F7009
S1131740405D4A3318F0495D31FD4052419302D067
S1131750A9F7EACFB4E0A69597958795779567950D
S1131760BA95C9F700976105710508959B01AC010D
S11317700A2E06945795479537952795BA95C9F734
S1131780620F731F841F951FA01D08952F923F920F
S11317904F925F926F927F928F929F92AF92BF927D
S11317A0CF92DF92EF92FF920F931F93CF93DF9329
S11317B0CDB7DEB7CA1BDB0B0FB6F894DEBF0FBE86
S11317C0CDBF09942A88398848885F846E847D84D3
S11317D08C849B84AA84B984C884DF80EE80FD80D5
S11317E00C811B81AA81B981CE0FD11D0FB6F8944B
S11117F0DEBF0FBECDBFED010895F894FFCF0C
S11317FE0100000003000000005B049304000000DD
S113180E01000101010001010100000101010100BB
S113181E01040100000104000200000000040100A4
S113182E00000000000000000000000000000001A5
S113183E000200000000010000020000020001018D
S113184E0000000100020000000000000000000083
S113185E0000000000040000000000000000000072
S113186E000001010101010104000000000001015A
S113187E0100000000000001010000010101012E21
S111188E2F292B2C2A2D3A302820170F060064
S9030000FC
